:020000040800F2
:10000000FCFF042011100008710B0008710B0008A0
:10001000710B0008710B0008710B0008710B0008D0
:10002000710B0008710B0008710B0008710B0008C0
:10003000710B0008710B0008710B0008710B0008B0
:10004000710B0008710B0008710B0008710B0008A0
:10005000710B0008710B0008710B0008710B000890
:10006000710B0008710B0008710B0008710B000880
:10007000710B0008710B0008710B0008710B000870
:10008000710B0008710B0008710B0008710B000860
:10009000710B0008710B0008710B0008710B000850
:1000A000710B0008710B0008710B0008710B000840
:1000B000710B0008710B0008710B0008710B000830
:1000C000710B0008710B0008710B0008710B000820
:1000D000710B0008710B0008710B0008710B000810
:1000E000710B0008710B0008710B0008710B000800
:1000F000710B0008710B0008710B0008710B0008F0
:10010000710B0008710B0008710B0008710B0008DF
:10011000710B0008710B0008710B0008710B0008CF
:10012000710B0008710B0008710B0008710B0008BF
:10013000710B0008710B0008710B0008710B0008AF
:10014000710B0008710B0008710B0008710B00089F
:10015000710B0008710B0008710B0008710B00088F
:10016000710B0008710B0008710B0008710B00087F
:10017000710B0008710B0008710B0008710B00086F
:10018000710B0008710B0008710B0008710B00085F
:10019000710B0008710B0008710B0008710B00084F
:1001A000710B0008710B0008710B0008710B00083F
:1001B000710B0008710B0008710B0008710B00082F
:1001C000710B0008710B000881B0244900EA01019D
:1001D0000846002218E0012038E0022036E0042022
:1001E00034E0082032E0102030E020202EE04020D3
:1001F0002CE080202AE040F2001027E040F20020AE
:1002000024E040F2004021E015498842E3D015493E
:100210008842E2D014498842E1D014498842E0D0B3
:1002200013498842DFD013498842DED01249884200
:10023000DDD012498842DCD011498842DBD0114917
:100240008842DBD010498842DBD010460F4909684C
:1002500041EA00020D490A6001B0704700FCFFFF4F
:10026000000002400004024000080240000C02406E
:10027000001002400014024000180240001C02401E
:100280000020024000240240002802403038024092
:1002900084B0CDF800E08DB21646864B00EA030329
:1002A0001F461846FFF790FFB5F1FF0F20D13C68BD
:1002B000814B04EA03031846804B9E4214D145F259
:1002C000555340EA03033B603D1D2C686FF0FF036C
:1002D00004EA03032B6007F208052C684FF6FF734E
:1002E00044EA03032B60E1E0422E01D13860DDE0F7
:1002F0004FF6FF739D4213D1704B9E420BD14FF0CE
:1003000055333B603C1D0023236007F208044FF087
:10031000FF332360CAE0422E02D100233B60C5E0D8
:1003200006F001030BB103200AE006F008030BB14D
:10033000022005E006F004030BB1012000E00020DC
:1003400006F401230BB103210AE006F400630BB1AC
:10035000022105E006F480630BB1012100E00021D9
:1003600006F020030BB1012200E0002206F48073A6
:100370000BB1022305E006F080030BB1012300E07E
:10038000002340F2000A01921FFA85F9B0460646A2
:1003900018460A460199BAF1100F80F087804FF095
:1003A000010303FA0AF409EA0403A34240F07B8044
:1003B0004FEA4A044FF00303A340DC433B68234069
:1003C0003B604FEA4A0306FA03F43B6823433B6071
:1003D00008F00C033BB307F208054FEA4A044FF05C
:1003E0000303A340DC432B6823402B6007F208057E
:1003F0004FEA4A0302FA03F42B6823432B603D1DA6
:100400001FFA8AF44FF00103A340DC432B6823401A
:100410002B603D1D1FFA8AF48BB203FA04F4A4B2D8
:100420002B6823432B6007F20C051FFA8AF35C004C
:10043000A4B24FF00303A340DC432B6823402B609E
:1004400007F20C054FEA4A0300FA03F42B68234332
:100450002B6008F0080333B308F470031B0D8DF80C
:100460000C30BAF1070F05D907F224030293AAF161
:10047000080503E007F2200302935546AC004FF055
:100480000F03A340DC43029B1B6803EA0404029BA6
:100490001C609DF80C40AB009C40029B1B6843EA2B
:1004A0000404029B1C600AF1010A74E7DDF800E015
:1004B00004B0704700FCFFFF0000FFFF14000800BD
:1004C00001480068704700BF1400002083B0CDF8D9
:1004D00000E0044604F0FF031A09104603F00F027F
:1004E0009446220A02F00F02934620E0324A02921A
:1004F00033E0324A029230E0314A02922DE0314A32
:1005000002922AE0304A029227E0304A029224E026
:100510002F4A029221E02F4A02921EE02E4A0292B6
:100520001BE02E4A029218E02D4A029215E00028A4
:10053000DCD00128DDD00228DED00328DFD004285B
:10054000E0D00528E1D00628E2D00728E3D008282B
:10055000E4D00928E5D00A28E6D0012212B202FA36
:100560000CF2ADF8042002980A46BDF80410FFF71B
:100570008FFE029A02F22001BCF1070F08D90A1D72
:100580001046ACF10802114601910146019800E0C5
:10059000604683004FF00F029A40D3430A681A4026
:1005A0000A6082000BFA02F30A681A430A60DDF857
:1005B00000E003B0704700BF0000024000040240AA
:1005C00000080240000C02400010024000140240EB
:1005D00000180240001C024000200240002402409B
:1005E0000028024083B0CDF800E00024A1004118AB
:1005F0000968B1F1FF3F14D000F23401A300C9181B
:1006000009680A46C11809680190ADF80840084613
:100610001146FFF75BFFBDF808400198641CA4B2C7
:10062000E4E7DDF800E003B07047FFFF82B0CDF8EB
:1006300000E0034619460191FFF742FF40F2E8311E
:1006400000FB01F201990A601749096801F0F00105
:100650000A09164989180878C0B21A1D1968C140DC
:1006600011601149096801F4E0518A0A0F4989189B
:100670000878C0B203F20802191D0968C140116070
:100680000949096801F460414A0B08498918097849
:10069000C8B203F20C02191D0968C1401160DDF8EF
:1006A00000E002B0704700BF08380240010000209F
:1006B00081B000F21C010A68C2F3401188B201B097
:1006C0007047FFFF81B000F21C010A68C2F34011BD
:1006D00001B9F8E700F22401096888B201B0704757
:1006E00081B0ADF800100146BDF8000001F21C0217
:1006F0001368C3F3C01202B9F8E701F228021060D0
:1007000001B070478BB0CDF800E09AB2BDF82C3044
:100710000C9E06ACADF80430ADF8082003910490AF
:100720002046FFF783FF04980399BDF80820BDF821
:1007300004307F4CA04213D17E4D2C6844F010044D
:100740002C607D4D7D4C25607D4D7E4C25607E4D21
:100750007E4C25607E4D7F4C2560099C05949FE072
:100760007D4CA04213D17D4D2C6844F400342C60A4
:100770007B4D724C25607B4D724C25607A4D734CDD
:1007800025607A4D734C2560089C059488E0784C70
:10079000A04213D1714D2C6844F480242C60754D17
:1007A000664C2560744D674C2560744D674C256020
:1007B000734D684C2560089C059471E0714CA04213
:1007C00013D1664D2C6844F400242C606E4D5B4CB4
:1007D00025606E4D5B4C25606D4D5C4C25606D4D0C
:1007E0005C4C2560089C05945AE06B4CA04213D1E8
:1007F0005A4D2C6844F480142C60684D4F4C256091
:10080000674D504C2560674D504C2560664D514CEE
:100810002560089C059443E0644CA04213D1454DEB
:100820002C6844F020042C60614D444C2560614DDF
:10083000444C2560604D454C2560604D454C25601D
:10084000099C05942CE05E4CA04213D15D4D2C68B0
:1008500044F080442C605C4D384C25605B4D394C35
:1008600025605B4D394C25605A4D3A4C2560089CFB
:10087000059415E0584CA04212D1524D2C6844F01A
:1008800000442C60554D2D4C2560554D2D4C256058
:10089000544D2E4C2560544D2E4C2560089C0594DB
:1008A000ADF80430ADF80820039104903046FFF70E
:1008B00099FE04980399BDF80820BDF80430051D81
:1008C00000242C60051D2C681C432C60002404604F
:1008D0001AB142F4806292B2FFE7046814430460E4
:1008E000046844F00D04046000F2080500242C6044
:1008F000059D192465438C00B5FBF4F76424B7FB10
:10090000F4F42601350964246C433C1B240104F2F1
:1009100032056424B5FBF4F404F00F0446EA040441
:1009200000F20C05A4B22C60DDF800E00BB07047BB
:100930000010014044380240050A00081C00002055
:10094000ED09000820000020410B000824000020D1
:10095000FFFFFFFF28000020004400404038024015
:10096000FFFFFFFFFFFFFFFFFFFFFFFFFFFFFFFF97
:1009700000480040FFFFFFFFFFFFFFFFFFFFFFFFFB
:10098000FFFFFFFF004C0040FFFFFFFFFFFFFFFFE7
:10099000FFFFFFFFFFFFFFFF00500040FFFFFFFFD3
:1009A000FFFFFFFFFFFFFFFFFFFFFFFF00140140FE
:1009B000FFFFFFFFFFFFFFFFFFFFFFFFFFFFFFFF47
:1009C0000078004040380240FFFFFFFFFFFFFFFFBD
:1009D000FFFFFFFFFFFFFFFF007C0040FFFFFFFF67
:1009E000FFFFFFFFFFFFFFFFFFFFFFFF81B0CDF81D
:1009F00000E00348FFF766FEDDF800E001B0704755
:100A00000010014081B0CDF800E081B20348FFF74B
:100A100067FEDDF800E001B0704700BF0010014044
:100A200081B00F48006840F001010D4801600021CD
:100A30000C4801600A4801680B4801400848016001
:100A40000A490B480160064801686FF480200140A4
:100A50000348016000210748016001B0704700BFF2
:100A60000038024008380240FFFFF6FE1030002434
:100A7000043802400C38024081B01048006840F051
:100A800080510E4801600E48006840F480310C48E7
:100A900001600C48006800F4803000B9F9E70848AC
:100AA000006840F40031064801600648006800F420
:100AB000003000B9F9E701B0704700BF403802408C
:100AC000007000400470004081B04FF000094FF00A
:100AD000000CBDEB0A0F04DCBDEB0B0F01DBD446B1
:100AE000EA464BF8049BBBEB0A0FFAD1BCEB0A0FAA
:100AF00005DDE246D9F800B00BF1040BF1E701B0D7
:100B00007047FFFF81B01CF8019B0BF8019BBBEB0A
:100B10000A0FF8D101B0704781B0CDF800E0019D17
:100B20002C4610B408B493B28AB201460348FFF7CA
:100B3000E9FD02B0DDF800E001B0704700100140AF
:100B400081B0CDF800E00348FFF7B2FDDDF800E02A
:100B500001B070470010014081B0CDF800E04FF0C7
:100B6000420289B2FFF794FBDDF800E001B0704764
:100B700081B0FEE701B0704781B04EF68850CEF2EA
:100B80000000016841F47001016000BF00BF00BFB8
:100B900000BF00BF00BF00BF00BF00BFF1EE100AE2
:100BA00040F44000E1EE100A01B0704781B0044902
:100BB0000448016004490548016001B0704700BF66
:100BC000803E0000140000200300000018000020F8
:100BD00082B0CDF800E08B4A8B4B8C4C8C4D8D4E07
:100BE000FFF71EFF8C48006840F080518A48016082
:100BF0008A48006840F4404188480160884800689D
:100C000040F4807186480160032D40F05080854893
:100C1000864206D98248006840F00701804801609A
:100C200044E08148864206D97D48006840F00601CC
:100C30007B4801603AE07D48864206D978480068E2
:100C400040F005017648016030E07948864206D9D7
:100C50007348006840F004017148016026E075485F
:100C6000864206D96E48006840F003016C48016076
:100C70001CE04EF66020864206D96948006840F0C4
:100C800002016748016011E047F23050864206D900
:100C90006348006840F001016148016006E0604877
:100CA00001686FF00F0001405D48016053E1022DC3
:100CB00040F05A806048864206D95948006840F0A2
:100CC0000801574801604EE05C48864206D9544806
:100CD000006840F007015248016044E058488642ED
:100CE00006D94F48006840F006014D4801603AE0DF
:100CF0004F48864206D94A48006840F005014848F6
:100D0000016030E04F48864206D94548006840F00F
:100D100004014348016026E04B48864206D940481A
:100D2000006840F003013E4801601CE04BF6803053
:100D3000864206D93A48006840F00201384801600E
:100D400011E045F6C050864206D93548006840F0AB
:100D500001013348016006E0314801686FF00F007F
:100D600001402F480160F6E0012D40F097803748A0
:100D7000864206D92A48006840F0090128480160E7
:100D80008BE03348864206D92548006840F00801C8
:100D90002348016081E02F48864206D92048006838
:100DA00040F007011E48016077E02B48864206D9D3
:100DB0001B48006840F00601194801606DE02748B3
:100DC000864206D91648006840F0050114480160C3
:100DD00063E02348864206D91148006840F00401C8
:100DE0000F48016059E01F48864206D90C48006848
:100DF00040F003010A4801604FE04AF6E0308642C5
:100E000039D931E08100000010000004000000002A
:100E100003000000803E00004038024000700040A7
:100E2000003C02405034030020BF0200F0490200A1
:100E3000C0D40100905F010000EE0200409002006B
:100E400080320200007701004019010070050300A4
:100E500080AF020090590200A0030200B0AD010073
:100E6000C0570100D00101005F48006840F0020156
:100E70005D48016011E045F2F050864206D95A48BB
:100E8000006840F001015848016006E056480168DA
:100E90006FF00F000140544801605CE0002D40F00D
:100EA0005A805248864206D94F48006840F00801EF
:100EB0004D4801604FE04E48864206D94A480068D6
:100EC00040F007014848016045E04A48864206D99B
:100ED0004548006840F00601434801603BE0464851
:100EE000864206D94048006840F005013E4801604E
:100EF00031E04248864206D93B48006840F0040190
:100F00003948016027E04EF66020864206D936480F
:100F1000006840F00301344801601CE049F640409D
:100F2000864206D93048006840F002012E48016030
:100F300011E044F62060864206D92B48006840F054
:100F400001012948016006E0274801686FF00F00A1
:100F5000014025480160FFF78FFD294803602948BB
:100F60000460294802EA00012848016002F00100FB
:100F700040B121462548006800F00200002800D159
:100F8000F8E700E0214602F4803048B11F480068CD
:100F900000F4003000B9F9E701920A46019902E035
:100FA00001911146019A01F0807070B117480068F4
:100FB00040F080711548016011461448006800F047
:100FC000007000B9F9E70A46FFE70E48006800F034
:100FD0000C01900000F00C00814200D0F5E7DDF834
:100FE00000E002B0704700BF003C02400071020008
:100FF000E0220200C0D40100A08601008038010078
:101000000438024008380240FFFF0F000038024059
:10101000FFF7DEFDFFF7B0FD00F0C4F8FFF7C6FDF7
:1010200000F080F81C4801B440F2000340F20002D6
:1010300040F200014DF6C020FFF76EFD01B046F60C
:10104000F917C0F2180700BF00BF7F1EFDD100BF17
:1010500000BF00BF00BF40F2FE011048FFF77CFD5B
:10106000FFF76EFDB0B1FFF7C1FC612812D10B484C
:101070000068C1436FF00100014009480170C8B227
:1010800020B90749087840F001000870044800784A
:10109000FFF7B8FCE4E7FEE7A4100008100C0240DC
:1010A00000000020090700000A070000FFFFFFFF03
:1010B0000000000000000000000000000000000030
:1010C0000000000000000000000000000000000020
:1010D00000000000000000001810000018100000C0
:1010E000FFFFFFFF00000000000000000000000004
:1010F00000000000000000000000000000000000F0
:1011000000000000000000000000000000000000DF
:10111000FE000000000102030401020304060708A8
:1011200009FFFFFF00B5DFF814B0DFF814A0DFF807
:1011300014C0FFF7E7FC00BD704700BF00000020AF
:101140001100002010110008FFFFFFFFFFFFFFFF4D
:10115000FFFFFFFFFFFFFFFFFFFFFFFFFFFFFFFF9F
:10116000FFFFFFFFFFFFFFFFFFFFFFFFFFFFFFFF8F
:10117000FFFFFFFFFFFFFFFFFFFFFFFFFFFFFFFF7F
:10118000FFFFFFFFFFFFFFFFFFFFFFFFFFFFFFFF6F
:10119000FFFFFFFFFFFFFFFFFFFFFFFFFFFFFFFF5F
:1011A000FFFFFFFF00B5DFF810B0DFF810A0FFF77A
:1011B0008BFC00BD704700BF000000202C00002009
:00000001FF
